{"abi":[{"type":"function","name":"FEE","inputs":[],"outputs":[{"name":"","type":"uint256","internalType":"uint256"}],"stateMutability":"view"},{"type":"function","name":"setValue","inputs":[{"name":"_x","type":"uint128","internalType":"uint128"}],"outputs":[],"stateMutability":"nonpayable"}],"bytecode":{"object":"0x6080604052348015600e575f5ffd5b5061018c8061001c5f395ff3fe608060405234801561000f575f5ffd5b5060043610610034575f3560e01c806362eb702a14610038578063c57981b514610054575b5f5ffd5b610052600480360381019061004d91906100fa565b610072565b005b61005c6100ac565b604051610069919061013d565b60405180910390f35b805f5f6101000a8154816fffffffffffffffffffffffffffffffff02191690836fffffffffffffffffffffffffffffffff16021790555050565b606481565b5f5ffd5b5f6fffffffffffffffffffffffffffffffff82169050919050565b6100d9816100b5565b81146100e3575f5ffd5b50565b5f813590506100f4816100d0565b92915050565b5f6020828403121561010f5761010e6100b1565b5b5f61011c848285016100e6565b91505092915050565b5f819050919050565b61013781610125565b82525050565b5f6020820190506101505f83018461012e565b9291505056fea2646970667358221220124f3a7adda400499ba622ce8d112218d04450d361c87407fe67f4b9d870e47764736f6c634300081c0033","linkReferences":{}},"methodIdentifiers":{"FEE()":"c57981b5","setValue(uint128)":"62eb702a"},"id":23}